:020000040800F2
:100000000000012065080008610700086307000878
:10001000650700086707000869070008000000007E
:100020000000000000000000000000006B07000856
:100030006D070008000000006F0700087107000846
:10004000B5080008B5080008B5080008B50800089C
:10005000B5080008B5080008B5080008B50800088C
:10006000B5080008B5080008B5080008B50800087C
:10007000B5080008B5080008B5080008B50800086C
:10008000B5080008B5080008B5080008B50800085C
:10009000B5080008B5080008B5080008B50800084C
:1000A000B5080008B5080008B5080008B50800083C
:1000B000B50800080000000000000000B5080008B6
:1000C000B5080008000000000000000079070008E3
:1000D00000000000B5080008B50800080000000096
:1000E000B5080008B5080008000000000000000086
:1000F0000000000000000000000000000000000000
:10010000000000000000000000000000B50800082A
:100110000000000000000000B5080008B508000855
:10012000B5080008B5080008B5080008B5080008BB
:10013000B5080008000000000000000000000000FA
:10014000B5080008B5080008B5080008B50800089B
:10015000B5080008B5080008B5080008B50800088B
:10016000B5080008B5080008B50800080000000040
:10017000B5080008B50800080000000000000000F5
:0C018000B5080008B5080008B508000824
:10018C0010B5054C237833B9044B13B10448AFF3C5
:10019C0000800123237010BD3C04002000000000EF
:1001AC00242C000808B5034B1BB103490348AFF3DB
:1001BC00008008BD0000000040040020242C000832
:1001CC0053B94AB9002908BF00281CBF4FF0FF31B2
:1001DC004FF0FF3000F074B9ADF1080C6DE904CEAE
:1001EC0000F006F8DDF804E0DDE9022304B0704706
:1001FC002DE9F047089E0D4604468846002B4DD14C
:10020C008A42944668D9B2FA82F252B101FA02F3E8
:10021C00C2F1200120FA01F10CFA02FC41EA0308B8
:10022C0094404FEA1C45210CB8FBF5FE1FFA8CF7E5
:10023C0005FB1E8341EA03430EFB07F199420BD9E0
:10024C001CEB03030EF1FF3080F01E81994240F24B
:10025C001B81AEF1020E63445B1AA4B2B3FBF5F042
:10026C0005FB103344EA034400FB07F7A7420AD905
:10027C001CEB040400F1FF3380F00881A74240F22C
:10028C00058164440238E41B40EA0E4000211EB193
:10029C00D4400023C6E90043BDE8F0878B4208D95F
:1002AC00002E00F0EE800021C6E900050846BDE8EE
:1002BC00F087B3FA83F100294AD1AB4202D38242D0
:1002CC0000F2F980841A65EB030301209846002E96
:1002DC00E2D0C6E90048DFE702B9FFDEB2FA82F2EB
:1002EC00002A40F09180A1EB0C054FEA1C471FFA45
:1002FC008CFE0121B5FBF7F307FB1350250C45EAE7
:10030C0000450EFB03F0A84208D91CEB050503F1D0
:10031C00FF3802D2A84200F2CB8043462D1AA4B279
:10032C00B5FBF7F007FB105544EA05440EFB00FE45
:10033C00A64508D91CEB040400F1FF3502D2A645F2
:10034C0000F2BB802846A4EB0E0440EA03409EE773
:10035C00C1F120078B4022FA07FC4CEA030C20FA6F
:10036C0007F405FA01F31C43FD404FEA1C4900FA5F
:10037C0001F3B5FBF9F8200C1FFA8CFE09FB18559C
:10038C0040EA054508FB0EF0A84202FA01F20BD92F
:10039C001CEB050508F1FF3A80F08880A84240F27A
:1003AC008580A8F1020865442D1AA4B2B5FBF9F0BA
:1003BC0009FB105544EA054500FB0EFEAE4508D975
:1003CC001CEB050500F1FF346CD2AE456AD902383E
:1003DC00654440EA0840A0FB0294A5EB0E05A5423B
:1003EC00C846A64656D353D05EB1B3EB080265EBB4
:1003FC000E0505FA07F722FA01F3CD401F43C6E9B3
:10040C0000750021BDE8F087C2F1200320FA03F14A
:10041C000CFA02FC25FA03F395400D434FEA1C47F6
:10042C001FFA8CFEB3FBF7F107FB11302B0C43EAE0
:10043C00004301FB0EF0984204FA02F408D91CEBBD
:10044C00030301F1FF382FD298422DD902396344AE
:10045C001B1AADB2B3FBF7F007FB103345EA0345AB
:10046C0000FB0EF3AB4208D91CEB050500F1FF387D
:10047C0016D2AB4214D902386544ED1A40EA014158
:10048C0038E73146304607E78646E5E61846FAE691
:10049C004B45A9D2B9EB020864EB0C0E0138A3E76B
:1004AC004046EAE7204694E74146D1E7D0467BE751
:1004BC00023B654432E7084609E76444023842E7E8
:1004CC00704700BF70B588B0002403940494059461
:1004DC00069407941F4BDA6C42F00402DA64DA6C6F
:1004EC0002F004020092009ADA6C42F00102DA6423
:1004FC00DA6C02F001020192019ADA6C42F002020B
:10050C00DA64DB6C03F002030293029B22464FF485
:10051C00B0514FF0904000F07DFD0F4D2246082168
:10052C00284600F077FD4FF4B05303930126049650
:10053C000594069403A94FF0904000F08FFC08231B
:10054C00039304960594069403A9284600F086FCB0
:10055C0008B070BD001002400004004872B6FEE7FF
:10056C0000B597B04422002105A802F093FA0023AD
:10057C00009301930293039304934FF4007000F0E3
:10058C0067FD002831D100F053FD1B4AD2F89030A2
:10059C0023F01803C2F8903014230593012307931A
:1005AC000B9300220C9260220D9202220F92109358
:1005BC00119328231293072313931492159205A8D1
:1005CC0000F030FE98B90F2300930323019300230E
:1005DC000293039304930421684601F059F940B93E
:1005EC0001F06EFC17B05DF804FBFFF7B7FFFFF7E7
:1005FC00B5FFFFF7B3FF00BF0010024000B587B096
:10060C00154B0DF1080C0FCBACE807002CF8023B96
:10061C001B0C8CF8003000F057FBFFF7A1FFFFF725
:10062C0051FF00F01DF800F0ABF800F0FEF90020CF
:10063C0000F0CAF90123009308230DEB03021421E7
:10064C00084600F0EBFA0821044800F0E8FC4FF4EF
:10065C00FA7000F05BFBF6E73C2C00080004004845
:10066C0008B51048104B03604FF4827343600023AD
:10067C0083604FF4E062C260036143614FF4007227
:10068C0082612822C2610362436283620722C262D2
:10069C0003630823436301F030FD00B908BDFFF785
:1006AC005DFFFBE7580400200030014000B589B025
:1006BC000023039304930593069307930268184B46
:1006CC009A4202D009B05DF804FB03F560431A6E40
:1006DC0042F480521A661A6E02F480520192019A08
:1006EC00DA6C42F00102DA64DB6C03F00103029372
:1006FC00029B822303930223049303230693052373
:10070C00079303A94FF0904000F0A8FB002211467C
:10071C00232000F021FB232000F056FBD2E700BF82
:10072C000030014082B00A4B1A6E42F001021A6688
:10073C001A6E02F001020092009A9A6D42F08052F9
:10074C009A659B6D03F080530193019B02B0704737
:10075C0000100240FEE7FEE7FEE7FEE7FEE770470B
:10076C007047704708B500F0BFFA08BD08B50248DD
:10077C0001F032FE08BD00BF580400207047000095
:10078C0008B50B480B4B03604FF4E1334360002377
:10079C008360C36003610C2242618361C3610362A5
:1007AC00436202F022F900B908BDFFF7D7FEFBE760
:1007BC00BC0400200044004070B59CB004460021ED
:1007CC001791189119911A911B91542202A802F0B9
:1007DC0061F922681E4B9A4201D01CB070BD0223F5
:1007EC00029302A801F0F8F900282ED1194B9A6D4A
:1007FC0042F400329A659A6D02F400320092009A2B
:10080C00DA6C42F00102DA64DB6C03F00103019351
:10081C00019B04231793022618960025199503248F
:10082C001A9407231B9317A94FF0904000F016FB66
:10083C004FF400431793189619951A941B9417A903
:10084C004FF0904000F00AFBC7E7FFF787FECDE7BB
:10085C000044004000100240DFF834D0FFF78EFF58
:10086C000C480D490D4A002302E0D458C4500433FF
:10087C00C4188C42F9D30A4A0A4C002301E01360D5
:10088C000432A242FBD302F0E1F8FFF7B7FEFEE719
:10089C0000000120000000203C04002094350008DA
:1008AC003C0400204C090020FEE7000000B583B09A
:1008BC008DF80700F9B101224FF480614FF09040A0
:1008CC0000F0A8FB00224FF400714FF0904000F0B4
:1008DC00A1FB4FF0FF3301220DF107010A4801F093
:1008EC007BFC01224FF400714FF0904000F092FB22
:1008FC0003B05DF804FB00224FF480614FF0904090
:10090C0000F088FBDEE700BF5804002008B500218A
:10091C008D20FFF7CBFF00211420FFF7C7FF00212C
:10092C00AF20FFF7C3FF08BD08B500218D20FFF7EE
:10093C00BDFF00211020FFF7B9FF0021AE20FFF70B
:10094C00B5FF08BD5AB1CB0800EBC31001F007018D
:10095C0001238B40084A115C194311547047CB0892
:10096C0000EBC31001F0070101238B40024A115C1C
:10097C0021EA0301115470474405002038B50025C5
:10098C000DE004EBC51301210E4AD05CFFF78EFF7E
:10099C000134E4B214F0800FF3D00135EDB2072D21
:1009AC000FD8A5F150000021C0B2FFF77FFF002146
:1009BC000220FFF77BFF00211020FFF777FF0024B8
:1009CC00E8E738BD4405002008B540B14FF480621B
:1009DC00FF21064802F05EF8FFF7D0FF08BD4FF488
:1009EC0080620021014802F055F8F5E7440500202B
:1009FC0008B501224FF480514FF0904000F00AFBF3
:100A0C00642000F083F900224FF480514FF09040A5
:100A1C0000F000FB642000F079F901224FF48051C2
:100A2C004FF0904000F0F6FA08BD08B5FFF7E0FF74
:100A3C00FFF77AFF0021AE20FFF738FF00210220DC
:100A4C00FFF734FF00211020FFF730FF002140207A
:100A5C00FFF72CFF00218120FFF728FF0021CF207A
:100A6C00FFF724FF0021A120FFF720FF0021C82061
:100A7C00FFF71CFF0021A620FFF718FF0021A8207C
:100A8C00FFF714FF00213F20FFF710FF0021D320B8
:100A9C00FFF70CFF00210846FFF708FF0021D520C7
:100AAC00FFF704FF00218020FFF700FF0021D92071
:100ABC00FFF7FCFE0021F120FFF7F8FE0021DA2001
:100ACC00FFF7F4FE00211220FFF7F0FE0021DB20DF
:100ADC00FFF7ECFE00214020FFF7E8FE002120206C
:100AEC00FFF7E4FE00210220FFF7E0FE00218D203D
:100AFC00FFF7DCFE00211420FFF7D8FE0021A42014
:100B0C00FFF7D4FE0021A620FFF7D0FE0021AF2076
:100B1C00FFF7CCFEFFF7FAFE08BD00002DE9F04709
:100B2C0007460E469DF820A0203A5FFA82F910F095
:100B3C00800F05D1102B37D0082B69D1002559E037
:100B4C000236F6B20027F5E705EB0913314A12F825
:100B5C0003806FEA08085FFA88F823E071193819E6
:100B6C000022C9B2C0B2FFF7EDFE0134E4B2072C8B
:100B7C000CD88023234118EA030FEFD071193819D0
:100B8C000122C9B2C0B2FFF7DDFEEEE70135EDB2CE
:100B9C000F2D3BD8BAF1000FD6D005EB09131D4A27
:100BAC0012F803800024E2E70025F1E71A4B03EB6F
:100BBC00C90313F805806FEA08085FFA88F823E088
:100BCC00711938190022C9B2C0B2FFF7BBFE01344B
:100BDC00E4B2072C0CD88023234118EA030FEFD082
:100BEC00711938190122C9B2C0B2FFF7ABFEEEE79A
:100BFC000135EDB2072D09D8BAF1000FD6D0064B4E
:100C0C0003EBC90313F805800024E2E7FFF7B6FEF7
:100C1C00BDE8F0878C2F0008942C00082DE9F047D4
:100C2C0082B004460E4690461F469DF828A0102B15
:100C3C0006D0082B1CD14FEA530909F1020901E037
:100C4C004FEA5309002501E00135EDB218F80520F3
:100C5C0072B1CDF800A03B4631462046FFF75EFF4F
:100C6C004C44E4B2782CEFD93E44F6B20024EBE7C6
:100C7C0002B0BDE8F0870000104B1B780BB90120C7
:100C8C00704710B504464FF47A70B0FBF3F30C4A7E
:100C9C001068B0FBF3F000F0A5F868B90F2C01D97F
:100CAC0001200AE0002221464FF0FF3000F054F8FA
:100CBC00044B1C60002000E0012010BD040000204B
:100CCC00000000200800002010B5032000F032F8CE
:100CDC000020FFF7D1FF10B10124204610BD0446BF
:100CEC00FFF720FDF9E70000034B1B78034A11685E
:100CFC000B441360704700BF04000020440900201F
:100D0C00014B1868704700BF4409002038B50446F1
:100D1C00FFF7F6FF0546B4F1FF3F02D0044B1B78FA
:100D2C001C44FFF7EDFF401BA042FAD338BD00BFB7
:100D3C0004000020074AD36823F4E0631B041B0C57
:100D4C00000200F4E060034343F0BF6343F400335C
:100D5C00D360704700ED00E000B5194BDB68C3F3BE
:100D6C000223C3F1070CBCF1040F28BF4FF0040C95
:100D7C0003F1040EBEF1060F18D9033B4FF0FF3EF2
:100D8C000EFA0CFC21EA0C0199400EFA03F322EA4C
:100D9C000303194300280BDB0901C9B200F16040C1
:100DAC0000F5614080F800135DF804FB0023E5E7D3
:100DBC0000F00F000901C9B2024B1954F4E700BF4F
:100DCC0000ED00E014ED00E0002807DB00F01F024E
:100DDC00400901239340024A42F82030704700BF7B
:100DEC0000E100E00138B0F1807F0BD24FF0E0233E
:100DFC005861054AF02182F82310002098610722DF
:100E0C001A6170470120704700ED00E008B590F8BA
:100E1C002530DBB2022B03D00423C363012008BDB1
:100E2C000268136823F00E0313600268136823F042
:100E3C0001031360436C03F01C03016C012202FAE2
:100E4C0003F34B6080F82520002380F82430836B5B
:100E5C0013B198470020E2E70020E0E770B582B0BC
:100E6C00002365E085685E000324B44025EA040590
:100E7C00CC68B4402C438460446824EA0C0C4C6865
:100E8C00C4F300149C4044EA0C04446061E0DD08A7
:100E9C00083550F8256003F007044FEA840C0F2442
:100EAC0004FA0CF426EA040E0C6904FA0CF444EA75
:100EBC000E0440F8254063E0022400E0002404FA0C
:100ECC000EF42C430CF1020C4E4D45F82C404E4CBC
:100EDC00A568D44325EA0206D1F804C01CF4801F8F
:100EEC0001D042EA0506484DAE60ED6804EA0506FD
:100EFC00D1F804C01CF4001F01D042EA0506424D93
:100F0C00EE606D6804EA0506D1F804C01CF4003FDD
:100F1C0001D042EA05063C4D6E602D682C404E68AF
:100F2C0016F4803F01D042EA0504374A14600133BD
:100F3C000A6832FA03F462D04FF0010C0CFA03FC8D
:100F4C001CEA0202F3D04C6804F00304013C012CAF
:100F5C0088D94C6804F00304032C0CD0C4685D00E1
:100F6C004FF0030C0CFA05FC24EA0C0C8C68AC401A
:100F7C0044EA0C04C4604C6804F00304022C86D0D0
:100F8C0004684FEA430E4FF0030C0CFA0EFC24EAF3
:100F9C000C0C4C6804F0030404FA0EF444EA0C0440
:100FAC0004604C6814F4403FC1D0184C256E45F0D9
:100FBC0001052566246E04F001040194019C4FEA9E
:100FCC00930C0CF102050F4C54F8255003F003045C
:100FDC004FEA840E0F2404FA0EF425EA0405B0F14E
:100FEC00904F3FF46BAF0A4CA04206D004F58064DE
:100FFC00A0423FF461AF072461E701245FE702B030
:10100C0070BD00BF00000140000401400010024010
:10101C00000400480AB181617047816270474369DE
:10102C0001EA030221EA030141EA024181617047AE
:10103C00024A136843F480731360704700700040D9
:10104C00024B186800F4C060704700BF007000408D
:10105C00B0F5007F0FD01F4B1B6803F4C063B3F5D2
:10106C00806F34D01B4A136823F4C06343F480634D
:10107C00136000207047174B1B6803F4C063B3F573
:10108C00007F20D0134A136823F4C06343F4007329
:10109C001360114B1B68322202FB03F30F4AA2FBB5
:1010AC0003239B0C013300E0013B0A4A526912F402
:1010BC00806F01D0002BF7D1064B5B6913F4806F66
:1010CC0003D1002070470020704703207047002098
:1010DC00704700BF007000400000002083DE1B43FF
:1010EC0030B583B00446204B9B6D13F0805F0BD062
:1010FC00FFF7A6FFB0F5007F17D0802C1FD82DD09E
:10110C00702C2DD000211BE0174DAB6D43F080539C
:10111C00AB65AB6D03F080530193019BFFF790FF20
:10112C00AB6D23F08053AB65E4E7802C03D9A02C86
:10113C0003D9022104E0002102E0012100E0032197
:10114C000A4A136823F007030B431360136803F078
:10115C0007038B4206D1002003B030BD0221EFE71C
:10116C000121EDE70120F7E70010024000200240CA
:10117C00284A9368D26802F0030213F00C030AD0D9
:10118C000C2B06D0042B1FD0082B20D0002002469D
:10119C0010E0012AF6D11F4A126812F0080F0CD188
:1011AC001C4AD2F89420C2F303221B4951F8222086
:1011BC0043B100200C2B0DD07047164A1268C2F3B5
:1011CC000312F2E71046F5E714480022F2E7144840
:1011DC000022EFE70F4BDB6803F00303022B16D062
:1011EC00032B00D10E4A0B49C868C0F30210431CF4
:1011FC00C868C0F3062002FB00F0B0FBF3F0CB682C
:10120C00C3F3416301335B00B0FBF3F0D4E7034A53
:10121C00E9E700BF00100240642C00080024F40031
:10122C0000127A00002800F01C83F0B583B004464D
:10123C00964B9D6805F00C05DE6806F00306036806
:10124C0013F0100F5AD0E5B10C2D18D0A369002B58
:10125C0000F0BB808D4A136843F001031360FFF765
:10126C004FFD0746894B1B6813F0020F40F09A8024
:10127C00FFF746FDC01B0228F4D90320FCE2012E27
:10128C00E4D1824B1B6813F0020F03D0A369002B2F
:10129C0000F0E982206A7D4B1B6813F0080F5BD0CD
:1012AC007A4B1B6803F0F00398425CD8774B1A68B2
:1012BC0042F008021A601A6822F0F002216A0A430E
:1012CC001A605A6822F47F42E16942EA01225A60AC
:1012DC00002D60D0FFF74CFF6C4B9B68C3F30313DE
:1012EC006B4AD35C03F01F03D8406A4B18606A4BFF
:1012FC001868FFF7C1FC002840F0BE82236813F089
:10130C00010F00F08180082D75D00C2D71D0636811
:10131C00B3F5803F00F09780B3F5A02F00F09980D3
:10132C005A4B1A6822F480321A601A6822F480220E
:10133C001A606368002B00F09980FFF7E1FC074608
:10134C00524B1B6813F4003F5ED1FFF7D9FCC01B56
:10135C006428F5D903208FE24C4BD3F894301B0949
:10136C0003F0F003A0E7FFF7BBFE002840F07D82FE
:10137C00464B1A6842F008021A601A6822F0F00212
:10138C00216A0A431A605A6822F47F42E16942EAF0
:10139C0001225A609EE7206AFFF7A2FE002899D02E
:1013AC00012069E2394B1A6842F008021A601A6887
:1013BC0022F0F002216A0A431A605A6822F47F4232
:1013CC00E16942EA01225A6098E7304A136823F037
:1013DC0001031360FFF794FC07462C4B1B6813F0BA
:1013EC00020F8BD0FFF78CFCC01B0228F5D9032011
:1013FC0042E2032E8BD1254B1B6813F4003F03D024
:10140C006368002B00F03382236813F0020F58D06E
:10141C00042D45D00C2D41D0E368002B77D01B4A0E
:10142C00136843F480731360FFF76AFC0646174B8E
:10143C001B6813F4806F61D1FFF762FC801B0228DC
:10144C00F5D9032018E2114A136843F48033136072
:10145C006FE703F18043A3F53C331A6842F4802212
:10146C001A601A6842F480321A6062E7FFF748FC8F
:10147C000746064B1B6813F4003FC5D0FFF740FC32
:10148C00C01B6428F5D90320F6E100BF0010024010
:10149C004C2C00080000002008000020022EBBD1BC
:1014AC00A44B1B6813F4806F03D0E368002B00F08F
:1014BC00E081A04A536823F0F853216943EA0163A1
:1014CC005360236813F0080F4CD063699BB3994A9F
:1014DC00D2F8943043F00103C2F89430FFF710FCBB
:1014EC000646944BD3F8943013F0020F3AD1FFF721
:1014FC0007FC801B0228F4D90320BDE18D4A5368F8
:10150C0023F0F853216943EA01635360D9E7894A10
:10151C00136823F480731360FFF7F2FB0646854BC8
:10152C001B6813F4806FCCD0FFF7EAFB801B0228FA
:10153C00F5D90320A0E17F4AD2F8943023F00103BF
:10154C00C2F89430FFF7DCFB06467A4BD3F89430A4
:10155C0013F0020F06D0FFF7D3FB801B0228F4D93F
:10156C00032089E1236813F0040F7AD0714B9B6D33
:10157C0013F0805F36D16F4B9A6D42F080529A65B2
:10158C009B6D03F080530193019B01266A4B1B68F2
:10159C0013F4807F28D0A368012B39D0052B3FD0C2
:1015AC00644BD3F8902022F00102C3F89020D3F8BA
:1015BC00902022F00402C3F89020A368002B3DD0A9
:1015CC00FFF79EFB07465B4BD3F8903013F0020FEE
:1015DC0046D1FFF795FBC01B41F288339842F2D9F4
:1015EC00032049E10026D1E7534A136843F4807382
:1015FC001360FFF785FB07464F4B1B6813F4807F86
:10160C00C9D1FFF77DFBC01B0228F5D9032033E1BC
:10161C00484AD2F8903043F00103C2F89030CCE73E
:10162C00444BD3F8902042F00402C3F89020D3F836
:10163C00902042F00102C3F89020BEE7FFF760FB58
:10164C0007463C4BD3F8903013F0020F08D0FFF74D
:10165C0057FBC01B41F288339842F2D903200BE1AF
:10166C00E6B9236813F0200F35D0636AE3B1314A31
:10167C00D2F8983043F00103C2F89830FFF740FBE2
:10168C0006462C4BD3F8983013F0020F23D1FFF7FA
:10169C0037FB801B0228F4D90320EDE0254A936D1B
:1016AC0023F080539365DCE7224AD2F8983023F07C
:1016BC000103C2F89830FFF723FB06461D4BD3F805
:1016CC00983013F0020F06D0FFF71AFB801B02288C
:1016DC00F4D90320D0E0A36A002B00F0CC80022BBD
:1016EC0017D00C2D00F0CC80124A136823F08073B5
:1016FC001360FFF705FB04460E4B1B6813F0007FCD
:10170C0000F0A880FFF7FCFA001B0228F4D9032094
:10171C00B2E0084BDB6803F00301E26A91420DD0A2
:10172C000C2D00F0AB80034B1B6813F0806F2FD097
:10173C000120A1E0001002400070004003F0700294
:10174C00216B0139B2EB011FEAD103F4FE42616B4C
:10175C00B2EB012FE4D103F07842A16BB2EBC16F75
:10176C00DED103F4C001E26B5208013AB1EB425FE7
:10177C00D6D103F0C063226C5208013AB3EB426F2E
:10178C00CED1404B1B6813F0007F49D0002073E092
:10179C003C4A136823F080731360FFF7B1FA0546D7
:1017AC00384B1B6813F0007F06D0FFF7A9FA401BDB
:1017BC000228F5D903205FE0324AD3683249194038
:1017CC00E36A206B013843EA0013606B43EA0023A1
:1017DC00E06B4008013843EA4053206C4008013864
:1017EC0043EA4063A06B43EAC0630B43D3601368C6
:1017FC0043F080731360D36843F08073D360FFF7BA
:10180C007FFA04461F4B1B6813F0007F06D1FFF7CD
:10181C0077FA001B0228F5D903202DE000202BE0DD
:10182C00184B1A6842F080721A60DA6842F08072C3
:10183C00DA60FFF765FA0446124B1B6813F0007F61
:10184C0006D1FFF75DFA031B022BF5D9032013E039
:10185C00002011E00B4AD1680C4B0B40D3600020E8
:10186C000AE001207047012006E0012004E001207D
:10187C0002E0012000E0002003B0F0BD0120FBE7F6
:10188C000120F9E7001002408C809D01FCFFEEFE68
:10189C00002800F0AF8070B50D460446594B1B680C
:1018AC0003F007038B420BD2564A136823F007034D
:1018BC000B431360136803F007038B4240F09C80CA
:1018CC00236813F0020F0CD0A2684F4B9B6803F0F7
:1018DC00F0039A4205D94C498B6823F0F0031A4364
:1018EC008A60236813F0010F39D06368032B09D089
:1018FC00022B26D063BB444A126812F0020F06D1A9
:10190C00012076E0404A126812F0007F76D03E4902
:10191C008A6822F0030213438B60FFF7F1F9064645
:10192C00394B9B6803F00C036268B3EB820F16D043
:10193C00FFF7E6F9801B41F288339842F0D9032077
:10194C0057E0314A126812F4003FE0D1012050E018
:10195C002D4A126812F4806FD9D1012049E0236816
:10196C0013F0020F0CD0A268274B9B6803F0F00316
:10197C009A4205D224498B6823F0F0031A438A60FB
:10198C00204B1B6803F00703AB420AD91D4A1368AE
:10199C0023F007032B431360136803F00703AB42D8
:1019AC002ED1236813F0040F06D0174A936823F442
:1019BC00E063E1680B439360236813F0080F07D0D2
:1019CC00114A936823F46053216943EAC10393607D
:1019DC00FFF7CEFB0C4B9B68C3F303130B4AD35C92
:1019EC0003F01F03D8400A4B18600A4B1868FFF726
:1019FC0043F970BD012070470120FAE70120F8E798
:101A0C000120F6E700200240001002404C2C000898
:101A1C000000002008000020014B1868704700BF30
:101A2C000000002008B5FFF7F7FF054B9B68C3F3D8
:101A3C000223044AD35C03F01F03D84008BD00BF47
:101A4C00001002405C2C000808B5FFF7E5FF054BC1
:101A5C009B68C3F3C223044AD35C03F01F03D84032
:101A6C0008BD00BF001002405C2C0008F8B504460D
:101A7C000F46584BDB6813F0030F18D0554BDB683F
:101A8C0003F003030268934202D001252846F8BDF7
:101A9C00002A00F09D804F4BDB68C3F30213013327
:101AAC004268934201D00125F0E7002509E0036864
:101ABC00022B56D0032B5BD0012B41D00125002DDE
:101ACC00E4D1444A136823F080631360FFF718F9DC
:101ADC000646404B1B6813F0006F05D0FFF710F95A
:101AEC00831B022BF5D90325002DCFD1002F4DD10F
:101AFC0038490B6923F0784323F4FE43A068E2686D
:101B0C00D20642EA002213430B61324A136843F0B7
:101B1C0080631360FFF7F4F806462E4B1B6813F036
:101B2C00006F05D1FFF7ECF8831B022BF5D90325C9
:101B3C00002DABD1274A1369A1690B431361A5E7AB
:101B4C00244A126812F0020F1ED02248C26822F0FA
:101B5C0073026168013943EA01131343C360002522
:101B6C00ADE71C4A126812F4806FEED10125A6E78E
:101B7C00184A126812F4003FE7D1164A126812F4A0
:101B8C00802FE2D101259AE7012598E7012F0FD08C
:101B9C001048026922F0C06222F4FE42A168636917
:101BAC005B08013B5B0643EA012313430361ACE78B
:101BBC000848026922F4C00222F4FE42A16823699B
:101BCC005B08013B5B0543EA0123134303619CE77C
:101BDC0001255BE7001002402DE9F04182B004467C
:101BEC00036813F4006F25D0C36BB3F5000F06D058
:101BFC00B3F5400F12D04BB1012637461CE0AE4A6C
:101C0C00D36843F48033D360002708E0002104300C
:101C1C00FFF72CFF074610B106460DE00027A64A39
:101C2C00D2F8883023F44003E16B0B43C2F88830C0
:101C3C00002601E000263746236813F4003F6BD0E2
:101C4C009D4B9B6D13F0805F4CD19B4B9A6D42F07A
:101C5C0080529A659B6D03F080530193019B4FF06A
:101C6C000108964A136843F480731360FFF748F831
:101C7C000546924B1B6813F4807F05D1FFF740F8A3
:101C8C00401B0228F5D90327002F40D18A4BD3F8EB
:101C9C00903013F4407315D0226D9A4212D0864ABC
:101CAC00D2F8903023F44073D2F8901041F4803184
:101CBC00C2F89010D2F8901021F48031C2F8901034
:101CCC00C2F8903013F0010F0FD1002F40F0C980F3
:101CDC00794AD2F8903023F44073216D0B43C2F84B
:101CEC00903015E04FF00008BBE7FFF709F8054608
:101CFC00714BD3F8903013F0020FE6D1FFF700F8D8
:101D0C00401B41F288339842F2D90327DDE73E4667
:101D1C00B8F1000F40F0A780236813F0010F08D032
:101D2C00654AD2F8883023F00303216A0B43C2F8CA
:101D3C008830236813F0020F08D05F4AD2F888303D
:101D4C0023F00C03616A0B43C2F88830236813F04C
:101D5C00200F08D0584AD2F8883023F44063A16A87
:101D6C000B43C2F88830236813F4007F08D0524A22
:101D7C00D2F8883023F44023616B0B43C2F88830CF
:101D8C00236813F4806F08D04B4AD2F8883023F4C0
:101D9C004013A16B0B43C2F88830236813F0400F3B
:101DAC0008D0454AD2F8883023F44053E16A0B43FB
:101DBC00C2F88830236813F4807F08D03E4AD2F8EA
:101DCC00883023F44033216B0B43C2F888302368EE
:101DDC0013F4005F0FD0384AD2F8883023F04063F8
:101DEC00216C0B43C2F88830236CB3F1006F40D0E8
:101DFC00B3F1806F42D0236813F4802F0FD02E4A9A
:101E0C00D2F8883023F04063616C0B43C2F8883001
:101E1C00636CB3F1006F39D0B3F1806F3BD02368A2
:101E2C0013F4804F0CD0244AD2F8883023F040535E
:101E3C00A16C0B43C2F88830A36CB3F1805F32D035
:101E4C00236813F4004F08D01B4AD2F8883023F0D3
:101E5C008043E16C0B43C2F88830304602B0BDE8D9
:101E6C00F0813E4654E7144A936D23F080539365FA
:101E7C0052E7D36843F48013D360BCE70121201DE3
:101E8C00FFF7F4FD0028B6D00646B4E7D36843F458
:101E9C008013D360C3E70121201DFFF7E7FD002865
:101EAC00BDD00646BBE70221201DFFF7DFFD002851
:101EBC00C6D00646C4E700BF0010024000700040C8
:101ECC00024A136843F00403136070470010024089
:101EDC002DE9F04782B00546884617461E46FEF7A8
:101EEC000FFF0A9B1B1A03EB0609FEF709FF82463C
:101EFC002B4B1B68C3F3CB3309FB03F301932B6808
:101F0C009C6838EA04030CBF4FF0010C4FF0000C36
:101F1C00BC4540D0B6F1FF3FF1D0FEF7F1FEA0EB8F
:101F2C000A0048450AD2B9F1000F07D0019A02B154
:101F3C004A46019B013B01939146E0E72A685368AE
:101F4C0023F0E00353606B68B3F5827F0BD0AB6A70
:101F5C00B3F5005F14D0012385F85D30002385F8BC
:101F6C005C30032018E0AB68B3F5004F02D0B3F53A
:101F7C00806FECD12A68136823F040031360E6E706
:101F8C002A68136823F4005313602A68136843F417
:101F9C0000531360DFE7002002B0BDE8F08700BFFC
:101FAC00000000202DE9F04782B006460C4615468D
:101FBC001F4600238DF80330FEF7A2FE0A9B1B1A66
:101FCC0003EB0708FEF79CFE8146D6F800A0314BC8
:101FDC001B6803EB8303C3EBC3031B0D08FB03F369
:101FEC00019302E0B7F1FF3F12D133689B6803EA1B
:101FFC00040CAC454AD0B4F5C06FF3D1002DF1D12F
:10200C009AF80C30DBB28DF803309DF80330E9E719
:10201C00FEF776FEA0EB090040450AD2B8F1000F9E
:10202C0007D0019A02B14246019B013B01939046B5
:10203C00DBE73268536823F0E00353607368B3F551
:10204C00827F0BD0B36AB3F5005F14D0012386F8FE
:10205C005D30002386F85C30032018E0B368B3F5DC
:10206C00004F02D0B3F5806FECD13268136823F0C7
:10207C0040031360E6E73268136823F400531360DF
:10208C003268136843F400531360DFE7002002B09A
:10209C00BDE8F0870000002070B582B004460D4604
:1020AC00164600920B4600224FF4C051FFF77AFF00
:1020BC00B0B900962B46002280212046FFF708FF7E
:1020CC00A8B900962B4600224FF4C0612046FFF7BA
:1020DC0069FF50B1236E43F020032366032004E014
:1020EC00236E43F020032366032002B070BD236EE1
:1020FC0043F0200323660320F7E700286AD010B5CD
:10210C000446436A33B94368B3F5827F05D0002394
:10211C00C36102E00023036143610023A36294F8CE
:10212C005D30002B4DD0022384F85D30226813689B
:10213C0023F040031360E368B3F5E06F47D9002246
:10214C00B3F5706F04D0B3F5E06F01D00023A36238
:10215C00636803F48273A16801F404410B432169A1
:10216C0001F002010B43616901F001010B43A1690C
:10217C0001F400710B43E16901F038010B43216A52
:10218C0001F080010B43A16A01F4005120680B435C
:10219C000360638B03F00403616A01F010010B43CD
:1021AC00616B01F008010B43E16801F470610B43B2
:1021BC00216813434B6000202066012384F85D30B6
:1021CC0010BD84F85C302046FEF770FAABE74FF494
:1021DC008052B5E7012070472DE9F04383B01D46CE
:1021EC0090F85C30012B00F0F48004468846914650
:1021FC00012380F85C30FEF783FD074694F85D60A0
:10220C00F6B2012E40F0DD80B8F1000F00F0DA805C
:10221C00B9F1000F00F0D680032384F85D30002361
:10222C002366C4F83880A4F83C90A4F83E9023644C
:10223C00A4F84430A4F846302365E364A368B3F5EE
:10224C00004F1ED023681A6812F0400F03D11A6891
:10225C0042F040021A60E368B3F5E06F44D963685A
:10226C0013B1B9F1010F20D1A26B23681288DA6087
:10227C00A36B0233A363E38F9BB2013B9BB2E38757
:10228C0013E02268136823F040031360226813687C
:10229C0043F480431360D5E7FEF732FDC01BA84220
:1022AC0002D3B5F1FF3F1AD1CDB1E38F9BB2002B16
:1022BC006FD023689A6812F0020FEDD0A26B1288CF
:1022CC00DA60A36B0233A363B4F83EC01FFA8CFC34
:1022DC000CF1FF3C1FFA8CFCA4F83EC0E5E701238F
:1022EC0084F85D3003266DE0636813B1B9F1010F1A
:1022FC0032D1E38F9BB2012B0CD9A26B23681288CD
:10230C00DA60A36B0233A363E38F9BB2023B9BB2F5
:10231C00E38721E0A26B236812781A73A36B013355
:10232C00A363E38F9BB2013B9BB2E38714E0A36BE7
:10233C001B781373A36B0133A363E38F9BB2013B35
:10234C009BB2E38708E0FEF7DBFCC01BA84202D37C
:10235C00B5F1FF3F18D1BDB1E38F9BB2CBB1226871
:10236C00936813F0020FEED0E38F9BB2012BDED9F2
:10237C00A36B1B88D360A36B0233A363E38F9BB265
:10238C00023B9BB2E387E7E7012384F85D30032629
:10239C0018E03A4629462046FFF77EFE08B1202376
:1023AC002366A36833B901932368DA6801929B68AA
:1023BC000193019B236E2BB9012384F85D30002619
:1023CC0000E00226002384F85C30304603B0BDE800
:1023DC00F0830226F9E7704730B585B004460268F1
:1023EC0051689368C3F3801013F0400F05D113F0BC
:1023FC00010F02D011F0400F69D113F0020F02D07F
:10240C0011F0800F67D1C3F3401513F0200F03D1E7
:10241C0010B913F4807F61D011F0200F5ED078B129
:10242C0094F85D00C0B203285AD0206E40F004002E
:10243C00206600200090D068009090680090009872
:10244C0065B1206E40F0010020660020029090687B
:10245C000290106820F040001060029A13F4807F04
:10246C0009D0236E43F008032366002303932368EB
:10247C009B680393039B236E002B2FD02268536819
:10248C0023F0E0035360012384F85D3011F0030F57
:10249C002ED02268536823F003035360A36D4BB115
:1024AC00154A9A63A06DFEF7B1FC18B1236E43F088
:1024BC0040032366636D8BB10F4A9A63606DFEF720
:1024CC00A5FC58B1236E43F04003236606E0E36C91
:1024DC002046984702E0236D2046984705B030BD52
:1024EC0000230193D368019393680193019BF5E753
:1024FC002046FFF770FFF1E70925000808B5806A50
:10250C000023A0F84630C387FFF765FF08BD0268BB
:10251C0052E8003F23F4907342E800310029F6D1D1
:10252C00026802F1080353E8003F23F0010308326C
:10253C0042E800310029F3D1036E012B06D0202391
:10254C00C0F880300023036683667047026852E847
:10255C00003F23F0100342E800310029F6D1EEE7EA
:10256C0010B504460168836802691343426913433A
:10257C00C269134308688C4A024013430B602268FB
:10258C00536823F44053E1680B435360A1692268FC
:10259C00864B9A4201D0236A1943936823F4306323
:1025AC000B4393602368824A93421CD0814A934226
:1025BC002DD07E4A934243D010227C498B4260D06E
:1025CC00E069B0F5004F00F08C80082A00F2E5803D
:1025DC00DFE812F0B400CA00B200E300CD00E30063
:1025EC00E300E300D00002F55842D2F8882002F054
:1025FC000302032A09D8DFE802F00204380601229C
:10260C00DBE70422D9E70822D7E71022D5E702F549
:10261C00E632D2F8882002F00C020C2A0ED8DFE841
:10262C0002F0070D0D0D090D0D0D260D0D0D0B00F6
:10263C000022C2E70422C0E70822BEE71022BCE752
:10264C0002F5C832D2F8882002F44062B2F5006F6D
:10265C000FD005D87AB1B2F5806F0ED10422ACE759
:10266C00B2F5406F0BD10822A7E70222A5E70222A0
:10267C00A3E70222A1E700229FE710229DE7102288
:10268C009BE7082A79D8DFE802F008782A782778BF
:10269C00787805004FF4004003E0FFF7C3F90028F9
:1026AC006DD0626802EB420383426AD8B0EB023F02
:1026BC0069D8010E00025308C0184FF0000341F115
:1026CC000001FDF77DFDA0F540723B4B9A425CD8B2
:1026DC002368D860002043E0FEF74AFDDFE7374867
:1026EC00DFE7082A53D8DFE802F00721055224520D
:1026FC0052520B00314803E0FFF794F9002848D000
:10270C006268530803EB4000B0FBF2F0A0F110023A
:10271C004FF6EF739A423ED883B223F00F03C0F307
:10272C00420018432368D860002019E0FFF78CF9A9
:10273C00E4E7FEF71DFDE1E7204802E0FFF772F940
:10274C0068B3636800EB5300B0FBF3F0A0F1100228
:10275C004FF6EF739A4224D8236880B2D8600020D9
:10276C000023A366E36610BDFFF76EF9E8E7FEF7FA
:10277C00FFFCE5E74FF40040E3E70120F0E7002021
:10278C00EEE70120ECE70120EAE70120E8E7012071
:10279C00E6E70020E4E70120E2E70120E0E7002083
:1027AC00DEE70120DCE700BFF369FFEF00800040AB
:1027BC000038014000440040FFFC0F000024F400EE
:1027CC00436A13F0080F06D00268536823F40043E1
:1027DC00416B0B435360436A13F0010F06D0026840
:1027EC00536823F40033816A0B435360436A13F03C
:1027FC00020F06D00268536823F48033C16A0B437E
:10280C005360436A13F0040F06D00268536823F434
:10281C008023016B0B435360436A13F0100F06D0F7
:10282C000268936823F48053816B0B439360436A73
:10283C0013F0200F06D00268936823F40053C16B89
:10284C000B439360436A13F0400F0AD0026853683D
:10285C0023F48013016C0B435360036CB3F5801F9E
:10286C000BD0436A13F0800F06D00268536823F430
:10287C000023816C0B43536070470268536823F448
:10288C00C003416C0B435360EBE72DE9F84305465D
:10289C000F4616469946DDF820802C68E46937EA25
:1028AC0004030CBF4FF0010C4FF0000CB44532D1B7
:1028BC00B8F1FF3FF1D0FEF723FAA0EB0900404539
:1028CC002CD8B8F1000F2BD02B681A6812F0040F1B
:1028DC00E3D0DA6912F0080F11D1DA6912F4006F43
:1028EC00DBD04FF400621A622846FFF710FE20235B
:1028FC00C5F88430002385F8783003200CE00824D8
:10290C001C622846FFF703FEC5F88440002385F8B7
:10291C007830012000E00020BDE8F8830320FBE7BD
:10292C000320F9E730B583B004460023C0F88430A7
:10293C00FEF7E6F905462268126812F0080F0FD16F
:10294C0023681B6813F0040F26D12023E367C4F817
:10295C00803000202066606684F8780003B030BDBB
:10296C006FF07E430093034600224FF40011204683
:10297C00FFF78BFF0028E3D0226852E8003F23F0DA
:10298C00800342E800310029F6D12023E3670023BD
:10299C0084F878300320E1E76FF07E4300932B46F8
:1029AC0000224FF480012046FFF76FFF0028CCD0A7
:1029BC00226852E8003F23F4907342E8003100296A
:1029CC00F6D1226802F1080353E8003F23F001031B
:1029DC00083242E800310029F3D12023C4F88030BA
:1029EC00002384F878300320B8E768B310B50446A8
:1029FC00C36F03B32423E3672268136823F0010336
:102A0C001360636AE3B92046FFF7AAFD012811D0D1
:102A1C002268536823F4904353602268936823F030
:102A2C002A0393602268136843F001031360204665
:102A3C00FFF778FF10BD80F87830FDF7BDFED9E7C1
:102A4C002046FFF7BDFEDEE70120704770B50D4E46
:102A5C000D4D761BB61006D0002455F8043B0134FE
:102A6C009847A642F9D1094E094D761B00F0D4F8CF
:102A7C00B61006D0002455F8043B01349847A64202
:102A8C00F9D170BD883500088835000890350008EC
:102A9C0088350008830730B548D0541E002A3FD033
:102AAC00CAB2034601E0013C3AD303F8012B9D075F
:102ABC00F9D1032C2DD9CDB245EA05250F2C45EAC9
:102ACC00054536D9A4F1100222F00F0C03F1200EAB
:102ADC00E6444FEA121C03F1100242E9045542E9A4
:102AEC00025510327245F8D10CF1010214F00C0FA2
:102AFC0003EB021204F00F0C13D0ACF1040323F01F
:102B0C0003030433134442F8045B9342FBD10CF0EF
:102B1C0003042CB1CAB21C4403F8012B9C42FBD118
:102B2C0030BD64461346002CF4D1F9E70346144635
:102B3C00BFE71A46A446E0E7024B13B1024800F087
:102B4C0005B8704700000000652B00080023014603
:102B5C001A46184600F01AB838B5084B084D5B1BDE
:102B6C009C1007D0043B1D44013C55F80439984790
:102B7C00002CF9D1BDE8384000F054B89435000869
:102B8C0090350008704700BF704700BF2DE9F04733
:102B9C00DFF87CA00646DAF8000098460F4691460E
:102BAC00FFF7F0FF1B4B1B68D3F8484124B3656853
:102BBC001F2D26DC5EB96B1C0235DAF80000636051
:102BCC0044F82570FFF7E0FF0020BDE8F08704EB28
:102BDC0085010123C1F88890D4F88821AB401A43B1
:102BEC00022EC4F88821C1F80881E4D1D4F88C21D4
:102BFC001343C4F88C31DEE703F5A674C3F84841DF
:102C0C00D5E7DAF80000FFF7BFFF4FF0FF30DCE745
:102C1C00380400207C350008F8B500BFF8BC08BCAF
:102C2C009E467047F8B500BFF8BC08BC9E4670477E
:102C3C0048656C6C6F20776F726C642121210000E9
:102C4C000000000000000000010203040607080950
:102C5C000000000001020304A0860100400D0300E7
:102C6C00801A060000350C0040420F0080841E00C4
:102C7C0000093D0000127A000024F40000366E01B9
:102C8C000048E801006CDC020000000000000000BD
:102C9C001010101000100000282828000000000060
:102CAC0028287C287C282800103C503814781000E8
:102CBC00004C2C1008606000304850205448340000
:102CCC003010200000000000081020202010080008
:102CDC002010080808102000001054385410000070
:102CEC000010107C101000000000000000180810EC
:102CFC00000000007C0000000000000000303000EC
:102D0C00000408102040000038444C54644438003F
:102D1C0010301010101038003844040810207C00BB
:102D2C007C08100804443800081828487C0808005F
:102D3C007C4078040444380018204078444438001F
:102D4C007C040810202020003844443844443800C7
:102D5C003844443C0408300000303000303000006F
:102D6C0000303000301020000810204020100800E7
:102D7C0000007C007C0000002010080408102000DB
:102D8C003844040810001000384404345C44380003
:102D9C00102844447C4444007844447844447800EB
:102DAC003844404040443800704844444448700023
:102DBC007C40407840407C007C4040784040400063
:102DCC003844405C44443C004444447C4444440007
:102DDC0038101010101038001C0808080848300073
:102DEC0044485060504844004040404040407C00C3
:102DFC00446C545444444400444464544C4444008F
:102E0C0038444444444438007844447840404000BA
:102E1C00384444445448340078444478504844007E
:102E2C003C404038040478007C1010101010100046
:102E3C00444444444444380044444444442810002A
:102E4C004444445454542800444428102844440016
:102E5C0044444428101010007C04081020407C00CE
:102E6C0038202020202038000040201008040000CA
:102E7C003808080808083800102844000000000032
:102E8C000000000000007C00201008000000000082
:102E9C00000038043C443C004040586444447800F2
:102EAC0000003840404438000404344C44443C0096
:102EBC00000038447C40380038242070202020004A
:102ECC0000003C44443C04384040586444444400B2
:102EDC00100030101010380008001808080848308E
:102EEC00404048506050480030101010101038000E
:102EFC0000006854544444000000586444444400A6
:102F0C000000384444443800000058646458404081
:102F1C000000344C4C340404000058644040400021
:102F2C0000003C4038047800202070202024180039
:102F3C0000004444444C3400000044444428100035
:102F4C000000444454542800000044281028440035
:102F5C0000004444443C043800007C0810207C00F1
:102F6C001020204020201000001010101010100015
:102F7C002010100810102000000000205408000041
:102F8C000000000000000000000000000000000035
:102F9C00000000181818181818180000181800004D
:102FAC000012362448000000000000000000000061
:102FBC00000000242424FE484848FE4848480000ED
:102FCC0000001038545450301C1414545438101041
:102FDC0000000044A4A8A8A8541A2A2A2A440000D5
:102FEC0000000030484848506EA494888976000050
:102FFC0000606020C0000000000000000000000025
:10300C000002040808101010101010080804020028
:10301C000040201010080808080808101020400074
:10302C00000000001010D63838D610100000000038
:10303C000000000010101010FE1010101000000006
:10304C00000000000000000000000000606020C0D4
:10305C0000000000000000007F00000000000000E5
:10306C000000000000000000000000006060000094
:10307C000000010202040408081010202040400047
:10308C0000000018244242424242424224180000EE
:10309C00000000107010101010101010107C0000A8
:1030AC000000003C4242420404081020427E000012
:1030BC000000003C42420418040202424438000062
:1030CC00000000040C14242444447E04041E00005C
:1030DC000000007E40404058640202424438000028
:1030EC000000001C24404058644242422418000056
:1030FC000000007E42440808101010101010000050
:10310C000000003C4242422418244242423C00004F
:10311C000000001824424242261A02022438000001
:10312C000000000000001818000000001818000033
:10313C0000000000000018180000001818083000EB
:10314C0000000002040810204020100804020000B7
:10315C00000000000000FE000000FE000000000067
:10316C000000004020100804020408102040000059
:10317C000000003C424262020408080018180000DB
:10318C0000000038445AAAAAAAAAB4424438000043
:10319C000000001010182828243C444242E700008C
:1031AC00000000F8444444784442424244F8000091
:1031BC000000003E42428080808080424438000003
:1031CC00000000F8444242424242424244F80000AD
:1031DC00000000FE424848784848404242FE000049
:1031EC00000000FE424848784848404040E000005B
:1031FC000000003C44448080808E844444380000AD
:10320C00000000E7424242427E42424242E7000056
:10321C000000007C1010101010101010107C00001A
:10322C000000003E0808080808080808080888F08C
:10323C00000000EE444850705048484444EE0000F2
:10324C00000000E0404040404040404042FE000052
:10325C00000000EE6C6C6C6C5454545454D600004A
:10326C00000000C7626252524A4A4A4646E20000D7
:10327C0000000038448282828282828244380000BC
:10328C00000000FC424242427C40404040E00000D2
:10329C0000000038448282828282B2CA4C38060016
:1032AC00000000F8444444784848444442E3000099
:1032BC000000003E4242402018040242427C0000C2
:1032CC00000000FE921010101010101010380000AA
:1032DC00000000E74242424242424242423C00006D
:1032EC00000000E742424424242828181010000053
:1032FC00000000D692929292AAAA6C444444000018
:10330C00000000E7422424181818242442E7000087
:10331C00000000EE44442828101010101038000053
:10332C000000007E840408081020204242FC0000AB
:10333C00001E1010101010101010101010101E0085
:10334C000000404020201010080404020202010179
:10335C000078080808080808080808080808780011
:10336C000008142200000000000000000000000013
:10337C00000000000000000000000000000000FF42
:10338C0000601000000000000000000000000000C1
:10339C00000000000000003C421E2242423F0000A0
:1033AC00000000C040404058644242426458000053
:1033BC00000000000000001C22404040221C0000C5
:1033CC00000000060202021E22424242261B00009E
:1033DC00000000000000003C427E4040423C0000E7
:1033EC000000000F1110107E10101010107C000047
:1033FC00000000000000003E444438403C42423C87
:10340C00000000C04040405C6242424242E7000083
:10341C00000000303000007010101010107C000004
:10342C000000000C0C00001C040404040404447888
:10343C00000000C04040404E4850684844EE000038
:10344C00000000701010101010101010107C0000F4
:10345C0000000000000000F64949494949ED000010
:10346C0000000000000000DC6242424242E7000023
:10347C00000000000000003C42424242423C00007E
:10348C0000000000000000D864424242645840E052
:10349C00000000000000001E22424242261A0207D1
:1034AC0000000000000000EE3220202020F8000078
:1034BC00000000000000003E42403C02427C000044
:1034CC00000000000010107C10101010100C0000F8
:1034DC0000000000000000C642424242463B000091
:1034EC0000000000000000E7422424281010000017
:1034FC0000000000000000D79292AAAA44440000E9
:10350C00000000000000006E24181818247600003B
:10351C0000000000000000E742242428181010E0EE
:10352C00000000000000007E44081010227E000005
:10353C000003040404040408040404040404030045
:10354C0008080808080808080808080808080808EF
:10355C0000601010101010081010101010106000E7
:10356C0000000000000020520C00000000000000D1
:04357C00100000201B
:083580007CCCFF7F010000007C
:08358800452B0008B101000809
:043590008D010008A1
:1035940000093D00010000001000000000000000D0
:1035A40000000000FC02002064030020CC03002083
:1035B4000000000000000000000000000000000007
:1035C40000000000000000000000000000000000F7
:1035D40000000000000000000000000000000000E7
:1035E40000000000000000000000000000000000D7
:1035F40000000000000000000000000000000000C7
:1036040000000000000000000000000000000000B6
:1036140000000000000000000000000000000000A6
:103624000000000000000000000000000000000096
:103634000000000000000000000000000000000086
:103644000000000000000000010000000000000075
:103654000E33CDAB34126DE6ECDE05000B0000003A
:103664000000000000000000000000000000000056
:103674000000000000000000000000000000000046
:103684000000000000000000000000000000000036
:103694000000000000000000000000000000000026
:0C39C40000000000000000004809002086
:040000050800086582
:00000001FF
