:020000040800F2
:10000000000001200908000805070008070700088C
:10001000090700080B0700080D0700080000000092
:100020000000000000000000000000000F070008B2
:10003000110700080000000013070008150700085A
:10004000590800085908000859080008590800080C
:1000500059080008590800085908000859080008FC
:1000600059080008590800085908000859080008EC
:1000700059080008590800085908000859080008DC
:1000800059080008590800085908000859080008CC
:1000900059080008590800085908000859080008BC
:1000A00059080008590800085908000859080008AC
:1000B000590800080000000000000000590800086E
:1000C0005908000800000000000000001D0700089B
:1000D000000000005908000859080008000000004E
:1000E000590800085908000800000000000000003E
:1000F0000000000000000000000000000000000000
:100100000000000000000000000000005908000886
:10011000000000000000000059080008590800080D
:10012000590800085908000859080008590800082B
:100130005908000800000000000000000000000056
:10014000590800085908000859080008590800080B
:1001500059080008590800085908000859080008FB
:100160005908000859080008590800080000000054
:1001700059080008590800080000000000000000AD
:0C01800059080008590800085908000838
:10018C0010B5054C237833B9044B13B10448AFF3C5
:10019C0000800123237010BD3C04002000000000EF
:1001AC00D423000808B5034B1BB103490348AFF334
:1001BC00008008BD0000000040040020D42300088B
:1001CC0053B94AB9002908BF00281CBF4FF0FF31B2
:1001DC004FF0FF3000F074B9ADF1080C6DE904CEAE
:1001EC0000F006F8DDF804E0DDE9022304B0704706
:1001FC002DE9F047089E0D4604468846002B4DD14C
:10020C008A42944668D9B2FA82F252B101FA02F3E8
:10021C00C2F1200120FA01F10CFA02FC41EA0308B8
:10022C0094404FEA1C45210CB8FBF5FE1FFA8CF7E5
:10023C0005FB1E8341EA03430EFB07F199420BD9E0
:10024C001CEB03030EF1FF3080F01E81994240F24B
:10025C001B81AEF1020E63445B1AA4B2B3FBF5F042
:10026C0005FB103344EA034400FB07F7A7420AD905
:10027C001CEB040400F1FF3380F00881A74240F22C
:10028C00058164440238E41B40EA0E4000211EB193
:10029C00D4400023C6E90043BDE8F0878B4208D95F
:1002AC00002E00F0EE800021C6E900050846BDE8EE
:1002BC00F087B3FA83F100294AD1AB4202D38242D0
:1002CC0000F2F980841A65EB030301209846002E96
:1002DC00E2D0C6E90048DFE702B9FFDEB2FA82F2EB
:1002EC00002A40F09180A1EB0C054FEA1C471FFA45
:1002FC008CFE0121B5FBF7F307FB1350250C45EAE7
:10030C0000450EFB03F0A84208D91CEB050503F1D0
:10031C00FF3802D2A84200F2CB8043462D1AA4B279
:10032C00B5FBF7F007FB105544EA05440EFB00FE45
:10033C00A64508D91CEB040400F1FF3502D2A645F2
:10034C0000F2BB802846A4EB0E0440EA03409EE773
:10035C00C1F120078B4022FA07FC4CEA030C20FA6F
:10036C0007F405FA01F31C43FD404FEA1C4900FA5F
:10037C0001F3B5FBF9F8200C1FFA8CFE09FB18559C
:10038C0040EA054508FB0EF0A84202FA01F20BD92F
:10039C001CEB050508F1FF3A80F08880A84240F27A
:1003AC008580A8F1020865442D1AA4B2B5FBF9F0BA
:1003BC0009FB105544EA054500FB0EFEAE4508D975
:1003CC001CEB050500F1FF346CD2AE456AD902383E
:1003DC00654440EA0840A0FB0294A5EB0E05A5423B
:1003EC00C846A64656D353D05EB1B3EB080265EBB4
:1003FC000E0505FA07F722FA01F3CD401F43C6E9B3
:10040C0000750021BDE8F087C2F1200320FA03F14A
:10041C000CFA02FC25FA03F395400D434FEA1C47F6
:10042C001FFA8CFEB3FBF7F107FB11302B0C43EAE0
:10043C00004301FB0EF0984204FA02F408D91CEBBD
:10044C00030301F1FF382FD298422DD902396344AE
:10045C001B1AADB2B3FBF7F007FB103345EA0345AB
:10046C0000FB0EF3AB4208D91CEB050500F1FF387D
:10047C0016D2AB4214D902386544ED1A40EA014158
:10048C0038E73146304607E78646E5E61846FAE691
:10049C004B45A9D2B9EB020864EB0C0E0138A3E76B
:1004AC004046EAE7204694E74146D1E7D0467BE751
:1004BC00023B654432E7084609E76444023842E7E8
:1004CC00704700BF30B589B00024039404940594A0
:1004DC0006940794164BDA6C42F00402DA64DA6C78
:1004EC0002F004020092009ADA6C42F00102DA6423
:1004FC00DA6C02F001020192019ADA6C42F002020B
:10050C00DA64DB6C03F002030293029B094D224672
:10051C000821284600F06AFB082303930123049367
:10052C000594069403A9284600F084FA09B030BD5E
:10053C00001002400004004872B6FEE700B597B008
:10054C004422002105A801F07DFE002300930193B5
:10055C000293039304934FF4007000F065FB0028A2
:10056C0031D100F051FB1B4AD2F8903023F0180324
:10057C00C2F8903014230593012307930B930022A8
:10058C000C9260220D9202220F9210931193282349
:10059C001293072313931492159205A800F02EFCC6
:1005AC0098B90F2300930323019300230293039321
:1005BC0004930421684600F057FF40B901F06CFA2F
:1005CC0017B05DF804FBFFF7B7FFFFF7B5FFFFF7B8
:1005DC00B3FF00BF0010024008B500F061F9FFF74F
:1005EC00ADFFFFF76FFF00F00DF800F09BF808214E
:1005FC00034800F000FB4FF4FA7000F073F9F6E7D3
:10060C000004004808B51048104B03604FF4827387
:10061C004360002383604FF4E062C2600361436176
:10062C004FF4007282612022C261036243628362D2
:10063C000722C26203630823436301F035FA00B951
:10064C0008BDFFF779FFFBE758040020003001409C
:10065C0000B589B000230393049305930693079385
:10066C000268184B9A4202D009B05DF804FB03F5FE
:10067C0060431A6E42F480521A661A6E02F480526B
:10068C000192019ADA6C42F00102DA64DB6C03F03D
:10069C0001030293029B82230393022304930323FB
:1006AC0006930523079303A94FF0904000F0C2F97D
:1006BC0000221146232000F03BF9232000F070F9B2
:1006CC00D2E700BF0030014082B00A4B1A6E42F0F4
:1006DC0001021A661A6E02F001020092009A9A6DDB
:1006EC0042F080529A659B6D03F080530193019BFD
:1006FC0002B0704700100240FEE7FEE7FEE7FEE79F
:10070C00FEE770477047704708B500F0D9F808BD90
:10071C0008B5024801F038FA08BD00BF58040020A3
:10072C007047000008B50B480B4B03604FF4E133E6
:10073C00436000238360C36003610C2242618361C8
:10074C00C3610362436201F028FD00B908BDFFF7E5
:10075C00F3FEFBE7BC0400200044004070B59CB0E5
:10076C00044600211791189119911A911B9154224A
:10077C0002A801F067FD22681E4B9A4201D01CB002
:10078C0070BD0223029302A801F012F800282ED1AA
:10079C00194B9A6D42F400329A659A6D02F400324C
:1007AC000092009ADA6C42F00102DA64DB6C03F01E
:1007BC0001030193019B042317930226189600252D
:1007CC00199503241A9407231B9317A94FF09040F3
:1007DC0000F030F94FF400431793189619951A94BA
:1007EC001B9417A94FF0904000F024F9C7E7FFF7CE
:1007FC00A3FECDE70044004000100240DFF834D0E7
:10080C00FFF78EFF0C480D490D4A002302E0D45827
:10081C00C4500433C4188C42F9D30A4A0A4C00233E
:10082C0001E013600432A242FBD301F0E7FCFFF7B6
:10083C00D3FEFEE700000120000000203C04002055
:10084C004C2400083C0400204C050020FEE700006E
:10085C00104B1B780BB90120704710B504464FF4B0
:10086C007A70B0FBF3F30C4A1068B0FBF3F000F0B5
:10087C00A5F868B90F2C01D901200AE00022214605
:10088C004FF0FF3000F054F8044B1C60002000E0E7
:10089C00012010BD040000200000002008000020F2
:1008AC0010B5032000F032F80020FFF7D1FF10B193
:1008BC000124204610BD0446FFF706FFF9E70000AF
:1008CC00034B1B78034A11680B441360704700BF3D
:1008DC000400002044050020014B1868704700BF3D
:1008EC004405002038B50446FFF7F6FF0546B4F181
:1008FC00FF3F02D0044B1B781C44FFF7EDFF401B5D
:10090C00A042FAD338BD00BF04000020074AD368C8
:10091C0023F4E0631B041B0C000200F4E0600343AF
:10092C0043F0BF6343F40033D360704700ED00E045
:10093C0000B5194BDB68C3F30223C3F1070CBCF100
:10094C00040F28BF4FF0040C03F1040EBEF1060F88
:10095C0018D9033B4FF0FF3E0EFA0CFC21EA0C01B8
:10096C0099400EFA03F322EA0303194300280BDB28
:10097C000901C9B200F1604000F5614080F8001334
:10098C005DF804FB0023E5E700F00F000901C9B294
:10099C00024B1954F4E700BF00ED00E014ED00E049
:1009AC00002807DB00F01F02400901239340024A94
:1009BC0042F82030704700BF00E100E00138B0F190
:1009CC00807F0BD24FF0E0235861054AF02182F86A
:1009DC0023100020986107221A617047012070478C
:1009EC0000ED00E008B590F82530DBB2022B03D007
:1009FC000423C363012008BD0268136823F00E03AF
:100A0C0013600268136823F001031360436C03F056
:100A1C001C03016C012202FA03F34B6080F82520C1
:100A2C00002380F82430836B13B198470020E2E751
:100A3C000020E0E770B582B0002365E085685E00B9
:100A4C000324B44025EA0405CC68B4402C438460EC
:100A5C00446824EA0C0C4C68C4F300149C4044EA2F
:100A6C000C04446061E0DD08083550F8256003F0A3
:100A7C0007044FEA840C0F2404FA0CF426EA040E43
:100A8C000C6904FA0CF444EA0E0440F8254063E0C7
:100A9C00022400E0002404FA0EF42C430CF1020CA6
:100AAC004E4D45F82C404E4CA568D44325EA020621
:100ABC00D1F804C01CF4801F01D042EA0506484D51
:100ACC00AE60ED6804EA0506D1F804C01CF4001F02
:100ADC0001D042EA0506424DEE606D6804EA050657
:100AEC00D1F804C01CF4003F01D042EA05063C4D8D
:100AFC006E602D682C404E6816F4803F01D042EA9F
:100B0C000504374A146001330A6832FA03F462D0E0
:100B1C004FF0010C0CFA03FC1CEA0202F3D04C68F7
:100B2C0004F00304013C012C88D94C6804F0030444
:100B3C00032C0CD0C4685D004FF0030C0CFA05FCC0
:100B4C0024EA0C0C8C68AC4044EA0C04C4604C687D
:100B5C0004F00304022C86D004684FEA430E4FF0D5
:100B6C00030C0CFA0EFC24EA0C0C4C6804F0030485
:100B7C0004FA0EF444EA0C0404604C6814F4403F8C
:100B8C00C1D0184C256E45F001052566246E04F085
:100B9C0001040194019C4FEA930C0CF102050F4CDB
:100BAC0054F8255003F003044FEA840E0F2404FA82
:100BBC000EF425EA0405B0F1904F3FF46BAF0A4CEC
:100BCC00A04206D004F58064A0423FF461AF072434
:100BDC0061E701245FE702B070BD00BF0000014077
:100BEC000004014000100240000400480AB1816179
:100BFC00704781627047436901EA030221EA0301ED
:100C0C0041EA024181617047024A136843F48073E0
:100C1C001360704700700040024B186800F4C0600D
:100C2C00704700BF00700040B0F5007F0FD01F4B25
:100C3C001B6803F4C063B3F5806F34D01B4A136890
:100C4C0023F4C06343F48063136000207047174B98
:100C5C001B6803F4C063B3F5007F20D0134A1368FC
:100C6C0023F4C06343F400731360114B1B683222EE
:100C7C0002FB03F30F4AA2FB03239B0C013300E09E
:100C8C00013B0A4A526912F4806F01D0002BF7D154
:100C9C00064B5B6913F4806F03D100207047002072
:100CAC007047032070470020704700BF0070004061
:100CBC000000002083DE1B4330B583B00446204B7C
:100CCC009B6D13F0805F0BD0FFF7A6FFB0F5007F94
:100CDC0017D0802C1FD82DD0702C2DD000211BE0CC
:100CEC00174DAB6D43F08053AB65AB6D03F0805388
:100CFC000193019BFFF790FFAB6D23F08053AB6525
:100D0C00E4E7802C03D9A02C03D9022104E00021B4
:100D1C0002E0012100E003210A4A136823F00703D3
:100D2C000B431360136803F007038B4206D10020BA
:100D3C0003B030BD0221EFE70121EDE70120F7E719
:100D4C000010024000200240284A9368D26802F04A
:100D5C00030213F00C030AD00C2B06D0042B1FD06B
:100D6C00082B20D00020024610E0012AF6D11F4AA1
:100D7C00126812F0080F0CD11C4AD2F89420C2F35E
:100D8C0003221B4951F8222043B100200C2B0DD01B
:100D9C007047164A1268C2F30312F2E71046F5E7E1
:100DAC0014480022F2E714480022EFE70F4BDB68EF
:100DBC0003F00303022B16D0032B00D10E4A0B4970
:100DCC00C868C0F30210431CC868C0F3062002FBBD
:100DDC0000F0B0FBF3F0CB68C3F3416301335B006D
:100DEC00B0FBF3F0D4E7034AE9E700BF0010024080
:100DFC00042400080024F40000127A00002800F0FB
:100E0C001C83F0B583B00446964B9D6805F00C0529
:100E1C00DE6806F00306036813F0100F5AD0E5B134
:100E2C000C2D18D0A369002B00F0BB808D4A1368E1
:100E3C0043F001031360FFF74FFD0746894B1B6816
:100E4C0013F0020F40F09A80FFF746FDC01B0228FA
:100E5C00F4D90320FCE2012EE4D1824B1B6813F081
:100E6C00020F03D0A369002B00F0E982206A7D4BAE
:100E7C001B6813F0080F5BD07A4B1B6803F0F00370
:100E8C0098425CD8774B1A6842F008021A601A68CC
:100E9C0022F0F002216A0A431A605A6822F47F4257
:100EAC00E16942EA01225A60002D60D0FFF74CFF45
:100EBC006C4B9B68C3F303136B4AD35C03F01F03A7
:100ECC00D8406A4B18606A4B1868FFF7C1FC0028C1
:100EDC0040F0BE82236813F0010F00F08180082DD2
:100EEC0075D00C2D71D06368B3F5803F00F09780FE
:100EFC00B3F5A02F00F099805A4B1A6822F4803277
:100F0C001A601A6822F480221A606368002B00F0C1
:100F1C009980FFF7E1FC0746524B1B6813F4003F26
:100F2C005ED1FFF7D9FCC01B6428F5D903208FE2F2
:100F3C004C4BD3F894301B0903F0F003A0E7FFF7F8
:100F4C00BBFE002840F07D82464B1A6842F0080236
:100F5C001A601A6822F0F002216A0A431A605A6871
:100F6C0022F47F42E16942EA01225A609EE7206A3C
:100F7C00FFF7A2FE002899D0012069E2394B1A68CC
:100F8C0042F008021A601A6822F0F002216A0A4341
:100F9C001A605A6822F47F42E16942EA01225A60DF
:100FAC0098E7304A136823F001031360FFF794FCB1
:100FBC0007462C4B1B6813F0020F8BD0FFF78CFCF1
:100FCC00C01B0228F5D9032042E2032E8BD1254BFE
:100FDC001B6813F4003F03D06368002B00F03382CE
:100FEC00236813F0020F58D0042D45D00C2D41D09E
:100FFC00E368002B77D01B4A136843F480731360AB
:10100C00FFF76AFC0646174B1B6813F4806F61D11F
:10101C00FFF762FC801B0228F5D9032018E2114A65
:10102C00136843F4803313606FE703F18043A3F537
:10103C003C331A6842F480221A601A6842F48032F7
:10104C001A6062E7FFF748FC0746064B1B6813F46F
:10105C00003FC5D0FFF740FCC01B6428F5D9032026
:10106C00F6E100BF00100240EC2300080000002055
:10107C0008000020022EBBD1A44B1B6813F4806F18
:10108C0003D0E368002B00F0E081A04A536823F002
:10109C00F853216943EA01635360236813F0080F86
:1010AC004CD063699BB3994AD2F8943043F0010356
:1010BC00C2F89430FFF710FC0646944BD3F89430EA
:1010CC0013F0020F3AD1FFF707FC801B0228F4D96A
:1010DC000320BDE18D4A536823F0F853216943EA9C
:1010EC0001635360D9E7894A136823F48073136052
:1010FC00FFF7F2FB0646854B1B6813F4806FCCD0D0
:10110C00FFF7EAFB801B0228F5D90320A0E17F4AF8
:10111C00D2F8943023F00103C2F89430FFF7DCFBD3
:10112C0006467A4BD3F8943013F0020F06D0FFF733
:10113C00D3FB801B0228F4D9032089E1236813F028
:10114C00040F7AD0714B9B6D13F0805F36D16F4BCF
:10115C009A6D42F080529A659B6D03F08053019317
:10116C00019B01266A4B1B6813F4807F28D0A3686F
:10117C00012B39D0052B3FD0644BD3F8902022F0B3
:10118C000102C3F89020D3F8902022F00402C3F897
:10119C009020A368002B3DD0FFF79EFB07465B4BCE
:1011AC00D3F8903013F0020F46D1FFF795FBC01B1C
:1011BC0041F288339842F2D9032049E10026D1E765
:1011CC00534A136843F480731360FFF785FB07469B
:1011DC004F4B1B6813F4807FC9D1FFF77DFBC01BFD
:1011EC000228F5D9032033E1484AD2F8903043F075
:1011FC000103C2F89030CCE7444BD3F8902042F076
:10120C000402C3F89020D3F8902042F00102C3F8F6
:10121C009020BEE7FFF760FB07463C4BD3F89030BD
:10122C0013F0020F08D0FFF757FBC01B41F28833B5
:10123C009842F2D903200BE1E6B9236813F0200F92
:10124C0035D0636AE3B1314AD2F8983043F00103E8
:10125C00C2F89830FFF740FB06462C4BD3F8983079
:10126C0013F0020F23D1FFF737FB801B0228F4D9B0
:10127C000320EDE0254A936D23F080539365DCE762
:10128C00224AD2F8983023F00103C2F89830FFF7C5
:10129C0023FB06461D4BD3F8983013F0020F06D0F3
:1012AC00FFF71AFB801B0228F4D90320D0E0A36AB5
:1012BC00002B00F0CC80022B17D00C2D00F0CC8032
:1012CC00124A136823F080731360FFF705FB044682
:1012DC000E4B1B6813F0007F00F0A880FFF7FCFAA0
:1012EC00001B0228F4D90320B2E0084BDB6803F0A2
:1012FC000301E26A91420DD00C2D00F0AB80034B40
:10130C001B6813F0806F2FD00120A1E00010024069
:10131C000070004003F07002216B0139B2EB011F29
:10132C00EAD103F4FE42616BB2EB012FE4D103F07E
:10133C007842A16BB2EBC16FDED103F4C001E26B5A
:10134C005208013AB1EB425FD6D103F0C063226C74
:10135C005208013AB3EB426FCED1404B1B6813F0ED
:10136C00007F49D0002073E03C4A136823F080735F
:10137C001360FFF7B1FA0546384B1B6813F0007F7A
:10138C0006D0FFF7A9FA401B0228F5D903205FE02D
:10139C00324AD36832491940E36A206B013843EA78
:1013AC000013606B43EA0023E06B4008013843EA0A
:1013BC004053206C4008013843EA4063A06B43EA79
:1013CC00C0630B43D360136843F080731360D3681E
:1013DC0043F08073D360FFF77FFA04461F4B1B6802
:1013EC0013F0007F06D1FFF777FA001B0228F5D91E
:1013FC0003202DE000202BE0184B1A6842F080727D
:10140C001A60DA6842F08072DA60FFF765FA044617
:10141C00124B1B6813F0007F06D1FFF75DFA031B1C
:10142C00022BF5D9032013E0002011E00B4AD16800
:10143C000C4B0B40D36000200AE0012070470120C8
:10144C0006E0012004E0012002E0012000E0002081
:10145C0003B0F0BD0120FBE70120F9E700100240CA
:10146C008C809D01FCFFEEFE002800F0AF8070B573
:10147C000D460446594B1B6803F007038B420BD2F5
:10148C00564A136823F007030B431360136803F0E9
:10149C0007038B4240F09C80236813F0020F0CD0A2
:1014AC00A2684F4B9B6803F0F0039A4205D94C4954
:1014BC008B6823F0F0031A438A60236813F0010F42
:1014CC0039D06368032B09D0022B26D063BB444A66
:1014DC00126812F0020F06D1012076E0404A126821
:1014EC0012F0007F76D03E498A6822F00302134343
:1014FC008B60FFF7F1F90646394B9B6803F00C0340
:10150C006268B3EB820F16D0FFF7E6F9801B41F24D
:10151C0088339842F0D9032057E0314A126812F40C
:10152C00003FE0D1012050E02D4A126812F4806F88
:10153C00D9D1012049E0236813F0020F0CD0A26826
:10154C00274B9B6803F0F0039A4205D224498B6821
:10155C0023F0F0031A438A60204B1B6803F0070347
:10156C00AB420AD91D4A136823F007032B431360BF
:10157C00136803F00703AB422ED1236813F0040F5A
:10158C0006D0174A936823F4E063E1680B43936039
:10159C00236813F0080F07D0114A936823F46053A3
:1015AC00216943EAC1039360FFF7CEFB0C4B9B68A8
:1015BC00C3F303130B4AD35C03F01F03D8400A4B4D
:1015CC0018600A4B1868FFF743F970BD012070478B
:1015DC000120FAE70120F8E70120F6E7002002409D
:1015EC0000100240EC23000800000020080000203E
:1015FC00014B1868704700BF0000002008B5FFF7CA
:10160C00F7FF054B9B68C3F30223044AD35C03F03A
:10161C001F03D84008BD00BF00100240FC23000887
:10162C0008B5FFF7E5FF054B9B68C3F3C223044ADB
:10163C00D35C03F01F03D84008BD00BF001002406C
:10164C00FC230008F8B504460F46584BDB6813F032
:10165C00030F18D0554BDB6803F003030268934269
:10166C0002D001252846F8BD002A00F09D804F4B82
:10167C00DB68C3F3021301334268934201D00125A6
:10168C00F0E7002509E00368022B56D0032B5BD052
:10169C00012B41D00125002DE4D1444A136823F0DD
:1016AC0080631360FFF718F90646404B1B6813F074
:1016BC00006F05D0FFF710F9831B022BF5D903251A
:1016CC00002DCFD1002F4DD138490B6923F0784331
:1016DC0023F4FE43A068E268D20642EA00221343D8
:1016EC000B61324A136843F080631360FFF7F4F820
:1016FC0006462E4B1B6813F0006F05D1FFF7ECF874
:10170C00831B022BF5D90325002DABD1274A136976
:10171C00A1690B431361A5E7244A126812F0020F6A
:10172C001ED02248C26822F073026168013943EA74
:10173C0001131343C3600025ADE71C4A126812F471
:10174C00806FEED10125A6E7184A126812F4003F0B
:10175C00E7D1164A126812F4802FE2D101259AE7DC
:10176C00012598E7012F0FD01048026922F0C062C2
:10177C0022F4FE42A16863695B08013B5B0643EA05
:10178C00012313430361ACE70848026922F4C00249
:10179C0022F4FE42A16823695B08013B5B0543EA26
:1017AC000123134303619CE701255BE70010024012
:1017BC002DE9F04182B00446036813F4006F25D084
:1017CC00C36BB3F5000F06D0B3F5400F12D04BB17D
:1017DC00012637461CE0AE4AD36843F48033D3600D
:1017EC00002708E000210430FFF72CFF074610B15A
:1017FC0006460DE00027A64AD2F8883023F44003B1
:10180C00E16B0B43C2F88830002601E00026374616
:10181C00236813F4003F6BD09D4B9B6D13F0805FDE
:10182C004CD19B4B9A6D42F080529A659B6D03F0A4
:10183C0080530193019B4FF00108964A136843F4BF
:10184C0080731360FFF748F80546924B1B6813F43E
:10185C00807F05D1FFF740F8401B0228F5D90327FC
:10186C00002F40D18A4BD3F8903013F4407315D02D
:10187C00226D9A4212D0864AD2F8903023F44073EB
:10188C00D2F8901041F48031C2F89010D2F8901038
:10189C0021F48031C2F89010C2F8903013F0010F8F
:1018AC000FD1002F40F0C980794AD2F8903023F440
:1018BC004073216D0B43C2F8903015E04FF00008D7
:1018CC00BBE7FFF709F80546714BD3F8903013F0DE
:1018DC00020FE6D1FFF700F8401B41F28833984223
:1018EC00F2D90327DDE73E46B8F1000F40F0A780A0
:1018FC00236813F0010F08D0654AD2F8883023F022
:10190C000303216A0B43C2F88830236813F0020FDB
:10191C0008D05F4AD2F8883023F00C03616A0B437D
:10192C00C2F88830236813F0200F08D0584AD2F838
:10193C00883023F44063A16A0B43C2F888302368D3
:10194C0013F4007F08D0524AD2F8883023F4402395
:10195C00616B0B43C2F88830236813F4806F08D096
:10196C004B4AD2F8883023F44013A16B0B43C2F8D6
:10197C008830236813F0400F08D0454AD2F88830DD
:10198C0023F44053E16A0B43C2F88830236813F404
:10199C00807F08D03E4AD2F8883023F44033216B44
:1019AC000B43C2F88830236813F4005F0FD0384A19
:1019BC00D2F8883023F04063216C0B43C2F8883096
:1019CC00236CB3F1006F40D0B3F1806F42D0236829
:1019DC0013F4802F0FD02E4AD2F8883023F04063B6
:1019EC00616C0B43C2F88830636CB3F1006F39D073
:1019FC00B3F1806F3BD0236813F4804F0CD0244A92
:101A0C00D2F8883023F04053A16C0B43C2F88830D5
:101A1C00A36CB3F1805F32D0236813F4004F08D06D
:101A2C001B4AD2F8883023F08043E16C0B43C2F898
:101A3C008830304602B0BDE8F0813E4654E7144A87
:101A4C00936D23F08053936552E7D36843F480136E
:101A5C00D360BCE70121201DFFF7F4FD0028B6D0B0
:101A6C000646B4E7D36843F48013D360C3E701217F
:101A7C00201DFFF7E7FD0028BDD00646BBE702217D
:101A8C00201DFFF7DFFD0028C6D00646C4E700BFC7
:101A9C000010024000700040024A136843F0040337
:101AAC00136070470010024000286AD010B504463D
:101ABC00436A33B94368B3F5827F05D00023C36111
:101ACC0002E00023036143610023A36294F85D30BC
:101ADC00002B4DD0022384F85D302268136823F06C
:101AEC0040031360E368B3F5E06F47D90022B3F508
:101AFC00706F04D0B3F5E06F01D00023A36263686C
:101B0C0003F48273A16801F404410B43216901F0D1
:101B1C0002010B43616901F001010B43A16901F45E
:101B2C0000710B43E16901F038010B43216A01F0AC
:101B3C0080010B43A16A01F4005120680B43036040
:101B4C00638B03F00403616A01F010010B43616BBA
:101B5C0001F008010B43E16801F470610B4321684B
:101B6C0013434B6000202066012384F85D3010BDC8
:101B7C0084F85C302046FEF76BFDABE74FF48052E7
:101B8C00B5E701207047704730B585B00446026850
:101B9C0051689368C3F3801013F0400F05D113F014
:101BAC00010F02D011F0400F69D113F0020F02D0D7
:101BBC0011F0800F67D1C3F3401513F0200F03D140
:101BCC0010B913F4807F61D011F0200F5ED078B182
:101BDC0094F85D00C0B203285AD0206E40F0040087
:101BEC00206600200090D0680090906800900098CB
:101BFC0065B1206E40F001002066002002909068D4
:101C0C000290106820F040001060029A13F4807F5C
:101C1C0009D0236E43F00803236600230393236843
:101C2C009B680393039B236E002B2FD02268536871
:101C3C0023F0E0035360012384F85D3011F0030FAF
:101C4C002ED02268536823F003035360A36D4BB16D
:101C5C00154A9A63A06DFEF7C5FE18B1236E43F0CA
:101C6C0040032366636D8BB10F4A9A63606DFEF778
:101C7C00B9FE58B1236E43F04003236606E0E36CD3
:101C8C002046984702E0236D2046984705B030BDAA
:101C9C0000230193D368019393680193019BF5E7AB
:101CAC002046FFF770FFF1E7B91C000808B5806A01
:101CBC000023A0F84630C387FFF765FF08BD026814
:101CCC0052E8003F23F4907342E800310029F6D12A
:101CDC00026802F1080353E8003F23F001030832C5
:101CEC0042E800310029F3D1036E012B06D02023EA
:101CFC00C0F880300023036683667047026852E8A0
:101D0C00003F23F0100342E800310029F6D1EEE742
:101D1C0010B5044601688368026913434269134392
:101D2C00C269134308688C4A024013430B60226853
:101D3C00536823F44053E1680B435360A169226854
:101D4C00864B9A4201D0236A1943936823F430637B
:101D5C000B4393602368824A93421CD0814A93427E
:101D6C002DD07E4A934243D010227C498B4260D0C6
:101D7C00E069B0F5004F00F08C80082A00F2E58095
:101D8C00DFE812F0B400CA00B200E300CD00E300BB
:101D9C00E300E300D00002F55842D2F8882002F0AC
:101DAC000302032A09D8DFE802F0020438060122F4
:101DBC00DBE70422D9E70822D7E71022D5E702F5A2
:101DCC00E632D2F8882002F00C020C2A0ED8DFE89A
:101DDC0002F0070D0D0D090D0D0D260D0D0D0B004F
:101DEC000022C2E70422C0E70822BEE71022BCE7AB
:101DFC0002F5C832D2F8882002F44062B2F5006FC6
:101E0C000FD005D87AB1B2F5806F0ED10422ACE7B1
:101E1C00B2F5406F0BD10822A7E70222A5E70222F8
:101E2C00A3E70222A1E700229FE710229DE71022E0
:101E3C009BE7082A79D8DFE802F008782A78277817
:101E4C00787805004FF4004003E0FFF7D7FB00283B
:101E5C006DD0626802EB420383426AD8B0EB023F5A
:101E6C0069D8010E00025308C0184FF0000341F16D
:101E7C000001FEF7A5F9A0F540723B4B9A425CD8E5
:101E8C002368D860002043E0FEF75EFFDFE73748A9
:101E9C00DFE7082A53D8DFE802F007210552245265
:101EAC0052520B00314803E0FFF7A8FB002848D042
:101EBC006268530803EB4000B0FBF2F0A0F1100293
:101ECC004FF6EF739A423ED883B223F00F03C0F360
:101EDC00420018432368D860002019E0FFF7A0FBEC
:101EEC00E4E7FEF731FFE1E7204802E0FFF786FB6D
:101EFC0068B3636800EB5300B0FBF3F0A0F1100281
:101F0C004FF6EF739A4224D8236880B2D860002031
:101F1C000023A366E36610BDFFF782FBE8E7FEF73C
:101F2C0013FFE5E74FF40040E3E70120F0E7002062
:101F3C00EEE70120ECE70120EAE70120E8E70120C9
:101F4C00E6E70020E4E70120E2E70120E0E70020DB
:101F5C00DEE70120DCE700BFF369FFEF0080004003
:101F6C000038014000440040FFFC0F000024F40046
:101F7C00436A13F0080F06D00268536823F4004339
:101F8C00416B0B435360436A13F0010F06D0026898
:101F9C00536823F40033816A0B435360436A13F094
:101FAC00020F06D00268536823F48033C16A0B43D6
:101FBC005360436A13F0040F06D00268536823F48D
:101FCC008023016B0B435360436A13F0100F06D050
:101FDC000268936823F48053816B0B439360436ACC
:101FEC0013F0200F06D00268936823F40053C16BE2
:101FFC000B439360436A13F0400F0AD00268536896
:10200C0023F48013016C0B435360036CB3F5801FF6
:10201C000BD0436A13F0800F06D00268536823F488
:10202C000023816C0B43536070470268536823F4A0
:10203C00C003416C0B435360EBE72DE9F8430546B5
:10204C000F4616469946DDF820802C68E46937EA7D
:10205C0004030CBF4FF0010C4FF0000CB44532D10F
:10206C00B8F1FF3FF1D0FEF737FCA0EB090040457B
:10207C002CD8B8F1000F2BD02B681A6812F0040F73
:10208C00E3D0DA6912F0080F11D1DA6912F4006F9B
:10209C00DBD04FF400621A622846FFF710FE2023B3
:1020AC00C5F88430002385F8783003200CE0082430
:1020BC001C622846FFF703FEC5F88440002385F810
:1020CC007830012000E00020BDE8F8830320FBE716
:1020DC000320F9E730B583B004460023C0F8843000
:1020EC00FEF7FAFB05462268126812F0080F0FD1B2
:1020FC0023681B6813F0040F26D12023E367C4F870
:10210C00803000202066606684F8780003B030BD13
:10211C006FF07E430093034600224FF400112046DB
:10212C00FFF78BFF0028E3D0226852E8003F23F032
:10213C00800342E800310029F6D12023E367002315
:10214C0084F878300320E1E76FF07E4300932B4650
:10215C0000224FF480012046FFF76FFF0028CCD0FF
:10216C00226852E8003F23F4907342E800310029C2
:10217C00F6D1226802F1080353E8003F23F0010373
:10218C00083242E800310029F3D12023C4F8803012
:10219C00002384F878300320B8E768B310B5044600
:1021AC00C36F03B32423E3672268136823F001038E
:1021BC001360636AE3B92046FFF7AAFD012811D02A
:1021CC002268536823F4904353602268936823F089
:1021DC002A0393602268136843F0010313602046BE
:1021EC00FFF778FF10BD80F87830FEF7B7FAD9E723
:1021FC002046FFF7BDFEDEE70120704770B50D4E9F
:10220C000D4D761BB61006D0002455F8043B013456
:10221C009847A642F9D1094E094D761B00F0D4F827
:10222C00B61006D0002455F8043B01349847A6425A
:10223C00F9D170BD4024000840240008482400084F
:10224C0040240008830730B548D0541E002A3FD0E4
:10225C00CAB2034601E0013C3AD303F8012B9D07B7
:10226C00F9D1032C2DD9CDB245EA05250F2C45EA21
:10227C00054536D9A4F1100222F00F0C03F1200E03
:10228C00E6444FEA121C03F1100242E9045542E9FC
:10229C00025510327245F8D10CF1010214F00C0FFA
:1022AC0003EB021204F00F0C13D0ACF1040323F077
:1022BC0003030433134442F8045B9342FBD10CF048
:1022CC0003042CB1CAB21C4403F8012B9C42FBD171
:1022DC0030BD64461346002CF4D1F9E7034614468E
:1022EC00BFE71A46A446E0E7024B13B1024800F0E0
:1022FC0005B87047000000001523000800230146B4
:10230C001A46184600F01AB838B5084B084D5B1B36
:10231C009C1007D0043B1D44013C55F804399847E8
:10232C00002CF9D1BDE8384000F054B84C2400081A
:10233C0048240008704700BF704700BF2DE9F047E4
:10234C00DFF87CA00646DAF8000098460F46914666
:10235C00FFF7F0FF1B4B1B68D3F8484124B36568AB
:10236C001F2D26DC5EB96B1C0235DAF800006360A9
:10237C0044F82570FFF7E0FF0020BDE8F08704EB80
:10238C0085010123C1F88890D4F88821AB401A4309
:10239C00022EC4F88821C1F80881E4D1D4F88C212C
:1023AC001343C4F88C31DEE703F5A674C3F8484137
:1023BC00D5E7DAF80000FFF7BFFF4FF0FF30DCE79E
:1023CC003804002034240008F8B500BFF8BC08BC61
:1023DC009E467047F8B500BFF8BC08BC9E467047D7
:1023EC0000000000000000000102030406070809B9
:1023FC000000000001020304A0860100400D030050
:10240C00801A060000350C0040420F0080841E002C
:10241C0000093D0000127A000024F40000366E0121
:0C242C000048E801006CDC0210000020F9
:08243800C4DDFF7F010000007C
:08244000F5220008B1010008BB
:042448008D010008FA
:10244C0000093D0001000000100000000000000029
:10245C0000000000FC02002064030020CC030020DC
:10246C000000000000000000000000000000000060
:10247C000000000000000000000000000000000050
:10248C000000000000000000000000000000000040
:10249C000000000000000000000000000000000030
:1024AC000000000000000000000000000000000020
:1024BC000000000000000000000000000000000010
:1024CC000000000000000000000000000000000000
:1024DC0000000000000000000000000000000000F0
:1024EC0000000000000000000000000000000000E0
:1024FC0000000000000000000100000000000000CF
:10250C000E33CDAB34126DE6ECDE05000B00000093
:10251C0000000000000000000000000000000000AF
:10252C00000000000000000000000000000000009F
:10253C00000000000000000000000000000000008F
:10254C00000000000000000000000000000000007F
:0C287C00000000000000000048050020E3
:0400000508000809DE
:00000001FF
